{
  "contractName": "ticketingSystem",
  "abi": [
    {
      "constant": true,
      "inputs": [],
      "name": "ticketPrice",
      "outputs": [
        {
          "name": "",
          "type": "uint256"
        }
      ],
      "payable": false,
      "stateMutability": "view",
      "type": "function"
    },
    {
      "constant": true,
      "inputs": [],
      "name": "releaseEther",
      "outputs": [
        {
          "name": "",
          "type": "bool"
        }
      ],
      "payable": false,
      "stateMutability": "view",
      "type": "function"
    },
    {
      "constant": true,
      "inputs": [
        {
          "name": "",
          "type": "uint256"
        }
      ],
      "name": "tickets",
      "outputs": [
        {
          "name": "owner",
          "type": "address"
        },
        {
          "name": "date",
          "type": "uint256"
        },
        {
          "name": "id_venue",
          "type": "uint256"
        },
        {
          "name": "id_artist",
          "type": "uint256"
        }
      ],
      "payable": false,
      "stateMutability": "view",
      "type": "function"
    },
    {
      "constant": true,
      "inputs": [],
      "name": "venueOwner",
      "outputs": [
        {
          "name": "",
          "type": "address"
        }
      ],
      "payable": false,
      "stateMutability": "view",
      "type": "function"
    },
    {
      "constant": true,
      "inputs": [
        {
          "name": "",
          "type": "uint256"
        }
      ],
      "name": "artistsRegister",
      "outputs": [
        {
          "name": "owner",
          "type": "address"
        },
        {
          "name": "id",
          "type": "uint256"
        },
        {
          "name": "name",
          "type": "bytes32"
        },
        {
          "name": "artistCategory",
          "type": "uint256"
        },
        {
          "name": "totalTicketSold",
          "type": "uint256"
        }
      ],
      "payable": false,
      "stateMutability": "view",
      "type": "function"
    },
    {
      "constant": true,
      "inputs": [
        {
          "name": "",
          "type": "uint256"
        }
      ],
      "name": "venuesRegister",
      "outputs": [
        {
          "name": "id",
          "type": "uint256"
        },
        {
          "name": "owner",
          "type": "address"
        },
        {
          "name": "name",
          "type": "bytes32"
        },
        {
          "name": "capacity",
          "type": "uint256"
        },
        {
          "name": "standardComission",
          "type": "uint256"
        }
      ],
      "payable": false,
      "stateMutability": "view",
      "type": "function"
    },
    {
      "constant": true,
      "inputs": [
        {
          "name": "",
          "type": "address"
        }
      ],
      "name": "pendingTransactions",
      "outputs": [
        {
          "name": "",
          "type": "uint256"
        }
      ],
      "payable": false,
      "stateMutability": "view",
      "type": "function"
    },
    {
      "constant": true,
      "inputs": [],
      "name": "name_tick",
      "outputs": [
        {
          "name": "",
          "type": "bytes32"
        }
      ],
      "payable": false,
      "stateMutability": "view",
      "type": "function"
    },
    {
      "constant": true,
      "inputs": [
        {
          "name": "",
          "type": "uint256"
        }
      ],
      "name": "concertsRegister",
      "outputs": [
        {
          "name": "artistId",
          "type": "uint256"
        },
        {
          "name": "concertDate",
          "type": "uint256"
        },
        {
          "name": "venueId",
          "type": "uint256"
        },
        {
          "name": "capa",
          "type": "uint256"
        },
        {
          "name": "validatedByArtist",
          "type": "bool"
        },
        {
          "name": "validatedByVenue",
          "type": "bool"
        },
        {
          "name": "totalSoldTicket",
          "type": "uint256"
        },
        {
          "name": "totalMoneyCollected",
          "type": "uint256"
        }
      ],
      "payable": false,
      "stateMutability": "view",
      "type": "function"
    },
    {
      "payable": false,
      "stateMutability": "nonpayable",
      "type": "fallback"
    },
    {
      "anonymous": false,
      "inputs": [
        {
          "indexed": false,
          "name": "ticketKey",
          "type": "bytes32"
        }
      ],
      "name": "TicketKey",
      "type": "event"
    },
    {
      "anonymous": false,
      "inputs": [
        {
          "indexed": false,
          "name": "canPurchase",
          "type": "bool"
        }
      ],
      "name": "CanPurchase",
      "type": "event"
    },
    {
      "anonymous": false,
      "inputs": [
        {
          "indexed": false,
          "name": "paid",
          "type": "bool"
        }
      ],
      "name": "PaidFor",
      "type": "event"
    },
    {
      "constant": false,
      "inputs": [
        {
          "name": "nam",
          "type": "bytes32"
        },
        {
          "name": "genr",
          "type": "uint256"
        }
      ],
      "name": "createArtist",
      "outputs": [],
      "payable": false,
      "stateMutability": "nonpayable",
      "type": "function"
    },
    {
      "constant": false,
      "inputs": [
        {
          "name": "ido",
          "type": "uint256"
        },
        {
          "name": "nam",
          "type": "bytes32"
        },
        {
          "name": "newgenr",
          "type": "uint256"
        },
        {
          "name": "a",
          "type": "address"
        }
      ],
      "name": "modifyArtist",
      "outputs": [],
      "payable": false,
      "stateMutability": "nonpayable",
      "type": "function"
    },
    {
      "constant": false,
      "inputs": [
        {
          "name": "nam",
          "type": "bytes32"
        },
        {
          "name": "cap",
          "type": "uint256"
        },
        {
          "name": "comi",
          "type": "uint256"
        }
      ],
      "name": "createVenue",
      "outputs": [],
      "payable": false,
      "stateMutability": "nonpayable",
      "type": "function"
    },
    {
      "constant": false,
      "inputs": [
        {
          "name": "ido",
          "type": "uint256"
        },
        {
          "name": "nam",
          "type": "bytes32"
        },
        {
          "name": "cap",
          "type": "uint256"
        },
        {
          "name": "comi",
          "type": "uint256"
        },
        {
          "name": "a",
          "type": "address"
        }
      ],
      "name": "modifyVenue",
      "outputs": [],
      "payable": false,
      "stateMutability": "nonpayable",
      "type": "function"
    },
    {
      "constant": false,
      "inputs": [
        {
          "name": "idart",
          "type": "uint256"
        },
        {
          "name": "idven",
          "type": "uint256"
        },
        {
          "name": "dat",
          "type": "uint256"
        },
        {
          "name": "a",
          "type": "address"
        }
      ],
      "name": "createTicket",
      "outputs": [],
      "payable": false,
      "stateMutability": "nonpayable",
      "type": "function"
    },
    {
      "constant": false,
      "inputs": [
        {
          "name": "idar",
          "type": "uint256"
        },
        {
          "name": "idve",
          "type": "uint256"
        },
        {
          "name": "dat",
          "type": "uint256"
        },
        {
          "name": "ca",
          "type": "uint256"
        }
      ],
      "name": "createConcert",
      "outputs": [],
      "payable": false,
      "stateMutability": "nonpayable",
      "type": "function"
    },
    {
      "constant": false,
      "inputs": [
        {
          "name": "_concertId",
          "type": "uint256"
        }
      ],
      "name": "validateConcert",
      "outputs": [],
      "payable": false,
      "stateMutability": "nonpayable",
      "type": "function"
    },
    {
      "constant": false,
      "inputs": [
        {
          "name": "id",
          "type": "uint256"
        },
        {
          "name": "a",
          "type": "address"
        }
      ],
      "name": "emitTicket",
      "outputs": [],
      "payable": false,
      "stateMutability": "nonpayable",
      "type": "function"
    },
    {
      "constant": false,
      "inputs": [
        {
          "name": "price",
          "type": "uint256"
        },
        {
          "name": "title",
          "type": "bytes32"
        }
      ],
      "name": "Tickets",
      "outputs": [],
      "payable": false,
      "stateMutability": "nonpayable",
      "type": "function"
    },
    {
      "constant": false,
      "inputs": [],
      "name": "allowPurchase",
      "outputs": [],
      "payable": false,
      "stateMutability": "nonpayable",
      "type": "function"
    },
    {
      "constant": false,
      "inputs": [],
      "name": "lockPurchase",
      "outputs": [],
      "payable": false,
      "stateMutability": "nonpayable",
      "type": "function"
    }
  ],
  "bytecode": "0x60806040526001600755600160085560016009556001600a5534801561002457600080fd5b506113ef806100346000396000f3fe608060405260043610610112576000357c0100000000000000000000000000000000000000000000000000000000900463ffffffff1680631209b1f61461013c5780631b4d15ae146101675780632d8c5b5e14610196578063486ff9ae146102055780634e04cdc71461026057806350b447121461027757806359cb327a14610307578063624913321461035657806371ecd9f31461036d57806388d65846146103c457806390b3b0141461043d57806392fc3b08146104ac57806397af2930146104e7578063a88ae8151461057e578063c127fd3914610615578063ddd1f7a01461067a578063e03536f3146106bf578063e62e4f8d14610718578063e88c31271461075d578063f02eafd114610788575b34801561011e57600080fd5b506000600260006101000a81548160ff021916908315150217905550005b34801561014857600080fd5b50610151610810565b6040518082815260200191505060405180910390f35b34801561017357600080fd5b5061017c610816565b604051808215151515815260200191505060405180910390f35b3480156101a257600080fd5b50610203600480360360808110156101b957600080fd5b81019080803590602001909291908035906020019092919080359060200190929190803573ffffffffffffffffffffffffffffffffffffffff169060200190929190505050610829565b005b34801561021157600080fd5b5061025e6004803603604081101561022857600080fd5b8101908080359060200190929190803573ffffffffffffffffffffffffffffffffffffffff1690602001909291905050506108d9565b005b34801561026c57600080fd5b5061027561092b565b005b34801561028357600080fd5b506102b06004803603602081101561029a57600080fd5b81019080803590602001909291905050506109ee565b604051808573ffffffffffffffffffffffffffffffffffffffff1673ffffffffffffffffffffffffffffffffffffffff16815260200184815260200183815260200182815260200194505050505060405180910390f35b34801561031357600080fd5b506103546004803603606081101561032a57600080fd5b81019080803590602001909291908035906020019092919080359060200190929190505050610a3e565b005b34801561036257600080fd5b5061036b610b22565b005b34801561037957600080fd5b50610382610be5565b604051808273ffffffffffffffffffffffffffffffffffffffff1673ffffffffffffffffffffffffffffffffffffffff16815260200191505060405180910390f35b3480156103d057600080fd5b5061043b600480360360a08110156103e757600080fd5b8101908080359060200190929190803590602001909291908035906020019092919080359060200190929190803573ffffffffffffffffffffffffffffffffffffffff169060200190929190505050610c0b565b005b34801561044957600080fd5b506104aa6004803603608081101561046057600080fd5b81019080803590602001909291908035906020019092919080359060200190929190803573ffffffffffffffffffffffffffffffffffffffff169060200190929190505050610d28565b005b3480156104b857600080fd5b506104e5600480360360208110156104cf57600080fd5b8101908080359060200190929190505050610e45565b005b3480156104f357600080fd5b506105206004803603602081101561050a57600080fd5b8101908080359060200190929190505050610fcd565b604051808673ffffffffffffffffffffffffffffffffffffffff1673ffffffffffffffffffffffffffffffffffffffff1681526020018581526020018481526020018381526020018281526020019550505050505060405180910390f35b34801561058a57600080fd5b506105b7600480360360208110156105a157600080fd5b8101908080359060200190929190505050611023565b604051808681526020018573ffffffffffffffffffffffffffffffffffffffff1673ffffffffffffffffffffffffffffffffffffffff1681526020018481526020018381526020018281526020019550505050505060405180910390f35b34801561062157600080fd5b506106646004803603602081101561063857600080fd5b81019080803573ffffffffffffffffffffffffffffffffffffffff169060200190929190505050611079565b6040518082815260200191505060405180910390f35b34801561068657600080fd5b506106bd6004803603604081101561069d57600080fd5b810190808035906020019092919080359060200190929190505050611091565b005b3480156106cb57600080fd5b50610716600480360360808110156106e257600080fd5b81019080803590602001909291908035906020019092919080359060200190929190803590602001909291905050506110ff565b005b34801561072457600080fd5b5061075b6004803603604081101561073b57600080fd5b810190808035906020019092919080359060200190929190505050611277565b005b34801561076957600080fd5b5061077261135b565b6040518082815260200191505060405180910390f35b34801561079457600080fd5b506107c1600480360360208110156107ab57600080fd5b8101908080359060200190929190505050611361565b6040518089815260200188815260200187815260200186815260200185151515158152602001841515151581526020018381526020018281526020019850505050505050505060405180910390f35b60035481565b600260009054906101000a900460ff1681565b80600080600954815260200190815260200160002060000160006101000a81548173ffffffffffffffffffffffffffffffffffffffff021916908373ffffffffffffffffffffffffffffffffffffffff16021790555083600080600954815260200190815260200160002060030181905550826000806009548152602001908152602001600020600201819055508160008060095481526020019081526020016000206001018190555050505050565b610927600c600084815260200190815260200160002060000154600c600085815260200190815260200160002060020154600c60008681526020019081526020016000206001015484610829565b5050565b600460009054906101000a900473ffffffffffffffffffffffffffffffffffffffff1673ffffffffffffffffffffffffffffffffffffffff163373ffffffffffffffffffffffffffffffffffffffff1614151561098757600080fd5b6001600260006101000a81548160ff0219169083151502179055507f572396e642acaa34c83f89427df4a22f433919a54455135ad1768ceda76dc6d6600260009054906101000a900460ff16604051808215151515815260200191505060405180910390a1565b60006020528060005260406000206000915090508060000160009054906101000a900473ffffffffffffffffffffffffffffffffffffffff16908060010154908060020154908060030154905084565b600854600b600060085481526020019081526020016000206000018190555033600b6000600854815260200190815260200160002060010160006101000a81548173ffffffffffffffffffffffffffffffffffffffff021916908373ffffffffffffffffffffffffffffffffffffffff16021790555082600b600060085481526020019081526020016000206002018190555081600b600060085481526020019081526020016000206003018190555080600b6000600854815260200190815260200160002060040181905550600860008154809291906001019190505550505050565b600460009054906101000a900473ffffffffffffffffffffffffffffffffffffffff1673ffffffffffffffffffffffffffffffffffffffff163373ffffffffffffffffffffffffffffffffffffffff16141515610b7e57600080fd5b6000600260006101000a81548160ff0219169083151502179055507f572396e642acaa34c83f89427df4a22f433919a54455135ad1768ceda76dc6d6600260009054906101000a900460ff16604051808215151515815260200191505060405180910390a1565b600460009054906101000a900473ffffffffffffffffffffffffffffffffffffffff1681565b3373ffffffffffffffffffffffffffffffffffffffff16600b600087815260200190815260200160002060010160009054906101000a900473ffffffffffffffffffffffffffffffffffffffff1673ffffffffffffffffffffffffffffffffffffffff16141515610c7b57600080fd5b80600b600087815260200190815260200160002060010160006101000a81548173ffffffffffffffffffffffffffffffffffffffff021916908373ffffffffffffffffffffffffffffffffffffffff16021790555083600b60008781526020019081526020016000206002018190555082600b60008781526020019081526020016000206003018190555081600b6000878152602001908152602001600020600401819055505050505050565b3373ffffffffffffffffffffffffffffffffffffffff166006600086815260200190815260200160002060000160009054906101000a900473ffffffffffffffffffffffffffffffffffffffff1673ffffffffffffffffffffffffffffffffffffffff16141515610d9857600080fd5b806006600086815260200190815260200160002060000160006101000a81548173ffffffffffffffffffffffffffffffffffffffff021916908373ffffffffffffffffffffffffffffffffffffffff1602179055508260066000868152602001908152602001600020600201819055508160066000868152602001908152602001600020600301819055506000600660008681526020019081526020016000206004018190555050505050565b42600c60008381526020019081526020016000206001015410151515610e6a57600080fd5b3373ffffffffffffffffffffffffffffffffffffffff16600b6000600c600085815260200190815260200160002060020154815260200190815260200160002060010160009054906101000a900473ffffffffffffffffffffffffffffffffffffffff1673ffffffffffffffffffffffffffffffffffffffff161415610f1a576001600c600083815260200190815260200160002060040160016101000a81548160ff0219169083151502179055505b3373ffffffffffffffffffffffffffffffffffffffff1660066000600c600085815260200190815260200160002060000154815260200190815260200160002060000160009054906101000a900473ffffffffffffffffffffffffffffffffffffffff1673ffffffffffffffffffffffffffffffffffffffff161415610fca576001600c600083815260200190815260200160002060040160006101000a81548160ff0219169083151502179055505b50565b60066020528060005260406000206000915090508060000160009054906101000a900473ffffffffffffffffffffffffffffffffffffffff16908060010154908060020154908060030154908060040154905085565b600b6020528060005260406000206000915090508060000154908060010160009054906101000a900473ffffffffffffffffffffffffffffffffffffffff16908060020154908060030154908060040154905085565b60016020528060005260406000206000915090505481565b816003819055508060058190555033600460006101000a81548173ffffffffffffffffffffffffffffffffffffffff021916908373ffffffffffffffffffffffffffffffffffffffff1602179055506000600260006101000a81548160ff0219169083151502179055505050565b83600c6000600a5481526020019081526020016000206000018190555081600c6000600a5481526020019081526020016000206001018190555082600c6000600a5481526020019081526020016000206002018190555080600c6000600a548152602001908152602001600020600301819055506000600c6000600a54815260200190815260200160002060040160016101000a81548160ff0219169083151502179055506000600c6000600a548152602001908152602001600020600501819055506000600c6000600a5481526020019081526020016000206006018190555060006002600a548115156111f057fe5b06141561122d576000600c6000600a54815260200190815260200160002060040160006101000a81548160ff02191690831515021790555061125f565b6001600c6000600a54815260200190815260200160002060040160006101000a81548160ff0219169083151502179055505b600a6000815480929190600101919050555050505050565b3360066000600754815260200190815260200160002060000160006101000a81548173ffffffffffffffffffffffffffffffffffffffff021916908373ffffffffffffffffffffffffffffffffffffffff16021790555081600660006007548152602001908152602001600020600201819055508060066000600754815260200190815260200160002060030181905550600754600660006007548152602001908152602001600020600101819055506000600660006007548152602001908152602001600020600401819055506007600081548092919060010191905055505050565b60055481565b600c6020528060005260406000206000915090508060000154908060010154908060020154908060030154908060040160009054906101000a900460ff16908060040160019054906101000a900460ff1690806005015490806006015490508856fea165627a7a723058208c7c288aa0e2fed81187ab8722dbda07e8b1684f057b64d5b0fd2aa84b4f825c0029",
  "source": "pragma solidity >=0.4.22<0.6.0;\r\n\r\ncontract ticketingSystem{\r\n\r\n\r\n\r\n  struct Ticket {\r\n   \r\n    address owner;\r\n    uint date;\r\n    uint id_venue;\r\n    uint id_artist;\r\n  }\r\n\r\n  mapping(uint256 => Ticket) public tickets;\r\n  mapping(address => uint) public pendingTransactions;\r\n  bool public releaseEther;\r\n  uint public ticketPrice;\r\n  address public venueOwner;\r\n  bytes32 public name_tick;\r\n  event TicketKey(bytes32 ticketKey);\r\n  event CanPurchase(bool canPurchase);\r\n  event PaidFor(bool paid);\r\n\r\nmapping (uint256 => Artist) public artistsRegister;\r\n\r\nstruct Artist\r\n{\r\n  address owner;\r\n  uint id;\r\n  bytes32 name;\r\n  uint artistCategory;\r\n  uint totalTicketSold;\r\n}\r\n\r\nuint artistCounter = 1 ;//compteur\r\nuint venueCounter = 1 ;\r\nuint ticketCounter = 1 ;\r\nuint concertcounter = 1 ;\r\n\r\n\r\n\r\nfunction createArtist (bytes32 nam, uint genr) public\r\n{\r\n  artistsRegister[artistCounter].owner=msg.sender;\r\n  artistsRegister[artistCounter].name=nam;\r\n  artistsRegister[artistCounter].artistCategory=genr;\r\n  artistsRegister[artistCounter].id=artistCounter;\r\n  artistsRegister[artistCounter].totalTicketSold=0;\r\n  artistCounter++;\r\n}\r\n\r\nfunction modifyArtist(uint ido,bytes32 nam,uint newgenr,address a )public\r\n{\r\n  require(artistsRegister[ido].owner==msg.sender);\r\n  artistsRegister[ido].owner=a;\r\n  artistsRegister[ido].name=nam;\r\n  artistsRegister[ido].artistCategory=newgenr;\r\n  artistsRegister[ido].totalTicketSold=0;\r\n  \r\n\r\n}\r\nmapping (uint256 => Venue) public venuesRegister;\r\n\r\n\r\nstruct Venue\r\n{\r\n  uint id;\r\n  address owner;\r\n  bytes32 name;\r\n  uint capacity;\r\n  uint standardComission;\r\n}\r\n\r\nfunction createVenue (bytes32 nam, uint cap, uint comi) public\r\n{\r\n  venuesRegister[venueCounter].id=venueCounter;\r\n  venuesRegister[venueCounter].owner=msg.sender;\r\n  venuesRegister[venueCounter].name=nam;\r\n  venuesRegister[venueCounter].capacity=cap;\r\n  venuesRegister[venueCounter].standardComission=comi;\r\n  venueCounter++;\r\n}\r\n\r\n\r\nfunction modifyVenue(uint ido,bytes32 nam,uint cap,uint comi,address a )public\r\n{\r\n  require(venuesRegister[ido].owner==msg.sender);\r\n  venuesRegister[ido].owner=a;\r\n  venuesRegister[ido].name=nam;\r\n  venuesRegister[ido].capacity=cap;\r\n  venuesRegister[ido].standardComission=comi;\r\n  \r\n}\r\n\r\nfunction createTicket(uint idart,uint idven,uint dat,address a )public\r\n{\r\n  tickets[ticketCounter].owner=a;\r\n  tickets[ticketCounter].id_artist=idart;\r\n  tickets[ticketCounter].id_venue=idven;\r\n  tickets[ticketCounter].date=dat;\r\n\r\n}\r\n\r\nmapping (uint256 => Concert) public concertsRegister;\r\n\r\nstruct Concert\r\n{\r\n  uint artistId;\r\n  uint concertDate;\r\n  uint venueId;\r\n  uint capa;\r\n  bool validatedByArtist;\r\n  bool validatedByVenue;\r\n  uint totalSoldTicket;\r\n  uint totalMoneyCollected;\r\n}\r\n\r\nfunction createConcert (uint idar, uint idve, uint dat,uint ca) public\r\n{\r\n\r\n  concertsRegister[concertcounter].artistId=idar;\r\n  concertsRegister[concertcounter].concertDate=dat;\r\n  concertsRegister[concertcounter].venueId=idve;\r\n  concertsRegister[concertcounter].capa=ca;\r\n  concertsRegister[concertcounter].validatedByVenue=false;\r\n  concertsRegister[concertcounter].totalSoldTicket=0;\r\n  concertsRegister[concertcounter].totalMoneyCollected=0;\r\n\r\n  if(concertcounter%2==0)\r\n  {concertsRegister[concertcounter].validatedByArtist=false;}\r\n else\r\n { concertsRegister[concertcounter].validatedByArtist=true;}\r\n  concertcounter++;\r\n}\r\n\r\n\r\nfunction validateConcert(uint _concertId) public {\r\n\r\nrequire(concertsRegister[_concertId].concertDate >= now);\r\n\r\nif (venuesRegister[concertsRegister[_concertId].venueId].owner == msg.sender)\r\n{\r\nconcertsRegister[_concertId].validatedByVenue = true;\r\n}\r\nif (artistsRegister[concertsRegister[_concertId].artistId].owner == msg.sender)\r\n{\r\nconcertsRegister[_concertId].validatedByArtist = true;\r\n}\r\n}\r\n\r\n\r\n\r\nfunction emitTicket(uint id,address a) public\r\n{\r\n/**  Ticket t;\r\n  t.owner=a;\r\n  t.date=concertsRegister[id].concertDate;\r\n  t.id_venue=concertsRegister[id].venueId;\r\n  t.id_artist=concertsRegister[id].artistId;\r\n**/\r\n\r\n  createTicket(concertsRegister[id].artistId,concertsRegister[id].venueId,\r\n    concertsRegister[id].concertDate,a);\r\n\r\n}\r\n\r\n\r\n\r\n\r\n\r\n\r\n  modifier onlyOwner() {\r\n    require(msg.sender == venueOwner);\r\n    _;\r\n  }\r\n\r\n  modifier notOwner() {\r\n    require(msg.sender != venueOwner);\r\n    _;\r\n  }\r\n\r\n  modifier releaseTrue() {\r\n    require(releaseEther);\r\n    _;\r\n  }\r\n\r\n  function Tickets(uint price,bytes32 title)public{\r\n    ticketPrice = price;\r\n    name_tick = title;\r\n    venueOwner = msg.sender;\r\n    releaseEther = false;\r\n  }\r\n\r\n  function ()external{\r\n    releaseEther = false;\r\n  }\r\n\r\n  function allowPurchase() onlyOwner public {\r\n    releaseEther = true;\r\n    emit CanPurchase(releaseEther);\r\n  }\r\n\r\n  function lockPurchase() onlyOwner public{\r\n    releaseEther = false;\r\n   emit CanPurchase(releaseEther);\r\n  }\r\n/**\r\n  function createTicket() payable notOwner public{\r\n    if (msg.value == ticketPrice) {\r\n      pendingTransactions[msg.sender] = msg.value;\r\n      bytes32 hash = keccak256(abi.encode(msg.sender));\r\n      tickets[hash] = Ticket(false, msg.sender);\r\n      emit TicketKey(hash);\r\n    }\r\n  }**/\r\n\r\n}",
  "sourcePath": "C:/Users/thomas/Documents/td7/contracts/ticketingSystem.sol",
  "compiler": {
    "name": "solc",
    "version": "0.5.0+commit.1d4f565a.Emscripten.clang"
  },
  "schemaVersion": "3.0.5",
  "updatedAt": "2019-03-23T11:40:34.794Z",
  "devdoc": {
    "methods": {}
  },
  "userdoc": {
    "methods": {}
  }
}