{
  "contractName": "ticketinSystem",
  "abi": [
    {
      "constant": true,
      "inputs": [],
      "name": "name",
      "outputs": [
        {
          "name": "",
          "type": "bytes32"
        }
      ],
      "payable": false,
      "stateMutability": "view",
      "type": "function"
    },
    {
      "constant": true,
      "inputs": [],
      "name": "ticketPrice",
      "outputs": [
        {
          "name": "",
          "type": "uint256"
        }
      ],
      "payable": false,
      "stateMutability": "view",
      "type": "function"
    },
    {
      "constant": true,
      "inputs": [],
      "name": "releaseEther",
      "outputs": [
        {
          "name": "",
          "type": "bool"
        }
      ],
      "payable": false,
      "stateMutability": "view",
      "type": "function"
    },
    {
      "constant": true,
      "inputs": [],
      "name": "venueOwner",
      "outputs": [
        {
          "name": "",
          "type": "address"
        }
      ],
      "payable": false,
      "stateMutability": "view",
      "type": "function"
    },
    {
      "constant": true,
      "inputs": [
        {
          "name": "",
          "type": "address"
        }
      ],
      "name": "pendingTransactions",
      "outputs": [
        {
          "name": "",
          "type": "uint256"
        }
      ],
      "payable": false,
      "stateMutability": "view",
      "type": "function"
    },
    {
      "constant": true,
      "inputs": [
        {
          "name": "",
          "type": "bytes32"
        }
      ],
      "name": "tickets",
      "outputs": [
        {
          "name": "paidFor",
          "type": "bool"
        },
        {
          "name": "owner",
          "type": "address"
        }
      ],
      "payable": false,
      "stateMutability": "view",
      "type": "function"
    },
    {
      "payable": false,
      "stateMutability": "nonpayable",
      "type": "fallback"
    },
    {
      "anonymous": false,
      "inputs": [
        {
          "indexed": false,
          "name": "ticketKey",
          "type": "bytes32"
        }
      ],
      "name": "TicketKey",
      "type": "event"
    },
    {
      "anonymous": false,
      "inputs": [
        {
          "indexed": false,
          "name": "canPurchase",
          "type": "bool"
        }
      ],
      "name": "CanPurchase",
      "type": "event"
    },
    {
      "anonymous": false,
      "inputs": [
        {
          "indexed": false,
          "name": "paid",
          "type": "bool"
        }
      ],
      "name": "PaidFor",
      "type": "event"
    },
    {
      "constant": false,
      "inputs": [
        {
          "name": "price",
          "type": "uint256"
        },
        {
          "name": "title",
          "type": "bytes32"
        }
      ],
      "name": "Tickets",
      "outputs": [],
      "payable": false,
      "stateMutability": "nonpayable",
      "type": "function"
    },
    {
      "constant": false,
      "inputs": [],
      "name": "allowPurchase",
      "outputs": [],
      "payable": false,
      "stateMutability": "nonpayable",
      "type": "function"
    },
    {
      "constant": false,
      "inputs": [],
      "name": "lockPurchase",
      "outputs": [],
      "payable": false,
      "stateMutability": "nonpayable",
      "type": "function"
    },
    {
      "constant": false,
      "inputs": [],
      "name": "createTicket",
      "outputs": [],
      "payable": true,
      "stateMutability": "payable",
      "type": "function"
    }
  ],
  "bytecode": "0x608060405234801561001057600080fd5b506107c7806100206000396000f3fe6080604052600436106100a4576000357c0100000000000000000000000000000000000000000000000000000000900463ffffffff16806306fdde03146100ce5780631209b1f6146100f95780631b4d15ae146101245780631d271709146101535780634e04cdc71461015d578063624913321461017457806371ecd9f31461018b578063c127fd39146101e2578063ddd1f7a014610247578063df0dd0d51461028c575b3480156100b057600080fd5b506000600260006101000a81548160ff021916908315150217905550005b3480156100da57600080fd5b506100e3610312565b6040518082815260200191505060405180910390f35b34801561010557600080fd5b5061010e610318565b6040518082815260200191505060405180910390f35b34801561013057600080fd5b5061013961031e565b604051808215151515815260200191505060405180910390f35b61015b610331565b005b34801561016957600080fd5b50610172610518565b005b34801561018057600080fd5b506101896105db565b005b34801561019757600080fd5b506101a061069e565b604051808273ffffffffffffffffffffffffffffffffffffffff1673ffffffffffffffffffffffffffffffffffffffff16815260200191505060405180910390f35b3480156101ee57600080fd5b506102316004803603602081101561020557600080fd5b81019080803573ffffffffffffffffffffffffffffffffffffffff1690602001909291905050506106c4565b6040518082815260200191505060405180910390f35b34801561025357600080fd5b5061028a6004803603604081101561026a57600080fd5b8101908080359060200190929190803590602001909291905050506106dc565b005b34801561029857600080fd5b506102c5600480360360208110156102af57600080fd5b810190808035906020019092919050505061074a565b60405180831515151581526020018273ffffffffffffffffffffffffffffffffffffffff1673ffffffffffffffffffffffffffffffffffffffff1681526020019250505060405180910390f35b60055481565b60035481565b600260009054906101000a900460ff1681565b600460009054906101000a900473ffffffffffffffffffffffffffffffffffffffff1673ffffffffffffffffffffffffffffffffffffffff163373ffffffffffffffffffffffffffffffffffffffff161415151561038e57600080fd5b6003543414156105165734600160003373ffffffffffffffffffffffffffffffffffffffff1673ffffffffffffffffffffffffffffffffffffffff16815260200190815260200160002081905550600033604051602001808273ffffffffffffffffffffffffffffffffffffffff1673ffffffffffffffffffffffffffffffffffffffff16815260200191505060405160208183030381529060405280519060200120905060408051908101604052806000151581526020013373ffffffffffffffffffffffffffffffffffffffff1681525060008083815260200190815260200160002060008201518160000160006101000a81548160ff02191690831515021790555060208201518160000160016101000a81548173ffffffffffffffffffffffffffffffffffffffff021916908373ffffffffffffffffffffffffffffffffffffffff1602179055509050507f21a111596625a44e891aecea18a0fc918763d007d79e0192077db338db8c963c816040518082815260200191505060405180910390a1505b565b600460009054906101000a900473ffffffffffffffffffffffffffffffffffffffff1673ffffffffffffffffffffffffffffffffffffffff163373ffffffffffffffffffffffffffffffffffffffff1614151561057457600080fd5b6001600260006101000a81548160ff0219169083151502179055507f572396e642acaa34c83f89427df4a22f433919a54455135ad1768ceda76dc6d6600260009054906101000a900460ff16604051808215151515815260200191505060405180910390a1565b600460009054906101000a900473ffffffffffffffffffffffffffffffffffffffff1673ffffffffffffffffffffffffffffffffffffffff163373ffffffffffffffffffffffffffffffffffffffff1614151561063757600080fd5b6000600260006101000a81548160ff0219169083151502179055507f572396e642acaa34c83f89427df4a22f433919a54455135ad1768ceda76dc6d6600260009054906101000a900460ff16604051808215151515815260200191505060405180910390a1565b600460009054906101000a900473ffffffffffffffffffffffffffffffffffffffff1681565b60016020528060005260406000206000915090505481565b816003819055508060058190555033600460006101000a81548173ffffffffffffffffffffffffffffffffffffffff021916908373ffffffffffffffffffffffffffffffffffffffff1602179055506000600260006101000a81548160ff0219169083151502179055505050565b60006020528060005260406000206000915090508060000160009054906101000a900460ff16908060000160019054906101000a900473ffffffffffffffffffffffffffffffffffffffff1690508256fea165627a7a723058200c36aa57f9fa1a9773a080acd7103a6da093be60866d93d1f34759ba67e0f11d0029",
  "source": "pragma solidity ^0.5.0;\r\n\r\ncontract ticketinSystem{\r\n\r\n\r\n\r\n  struct Ticket {\r\n    bool paidFor;\r\n    address owner;\r\n  }\r\n\r\n  mapping(bytes32 => Ticket) public tickets;\r\n  mapping(address => uint) public pendingTransactions;\r\n  bool public releaseEther;\r\n  uint public ticketPrice;\r\n  address public venueOwner;\r\n  bytes32 public name;\r\n  event TicketKey(bytes32 ticketKey);\r\n  event CanPurchase(bool canPurchase);\r\n  event PaidFor(bool paid);\r\n\r\n  modifier onlyOwner() {\r\n    require(msg.sender == venueOwner);\r\n    _;\r\n  }\r\n\r\n  modifier notOwner() {\r\n    require(msg.sender != venueOwner);\r\n    _;\r\n  }\r\n\r\n  modifier releaseTrue() {\r\n    require(releaseEther);\r\n    _;\r\n  }\r\n\r\n  function Tickets(uint price,bytes32 title)public{\r\n    ticketPrice = price;\r\n    name = title;\r\n    venueOwner = msg.sender;\r\n    releaseEther = false;\r\n  }\r\n\r\n  function ()external{\r\n    releaseEther = false;\r\n  }\r\n\r\n  function allowPurchase() onlyOwner public {\r\n    releaseEther = true;\r\n    emit CanPurchase(releaseEther);\r\n  }\r\n\r\n  function lockPurchase() onlyOwner public{\r\n    releaseEther = false;\r\n   emit CanPurchase(releaseEther);\r\n  }\r\n\r\n  function createTicket() payable notOwner public{\r\n    if (msg.value == ticketPrice) {\r\n      pendingTransactions[msg.sender] = msg.value;\r\n      bytes32 hash = keccak256(abi.encode(msg.sender));\r\n      tickets[hash] = Ticket(false, msg.sender);\r\n      emit TicketKey(hash);\r\n    }\r\n  }\r\n\r\n}",
  "sourcePath": "C:/Users/thomas/Documents/td7/contracts/ticketingSystem.sol",
  "compiler": {
    "name": "solc",
    "version": "0.5.0+commit.1d4f565a.Emscripten.clang"
  },
  "schemaVersion": "3.0.5",
  "updatedAt": "2019-03-22T16:24:53.371Z",
  "devdoc": {
    "methods": {}
  },
  "userdoc": {
    "methods": {}
  }
}