{
  "contractName": "ticketingSystem",
  "abi": [
    {
      "constant": true,
      "inputs": [],
      "name": "ticketPrice",
      "outputs": [
        {
          "name": "",
          "type": "uint256"
        }
      ],
      "payable": false,
      "stateMutability": "view",
      "type": "function"
    },
    {
      "constant": true,
      "inputs": [],
      "name": "releaseEther",
      "outputs": [
        {
          "name": "",
          "type": "bool"
        }
      ],
      "payable": false,
      "stateMutability": "view",
      "type": "function"
    },
    {
      "constant": true,
      "inputs": [
        {
          "name": "",
          "type": "uint256"
        }
      ],
      "name": "ticketsRegister",
      "outputs": [
        {
          "name": "idticket",
          "type": "uint256"
        },
        {
          "name": "owner",
          "type": "address"
        },
        {
          "name": "date",
          "type": "uint256"
        },
        {
          "name": "id_venue",
          "type": "uint256"
        },
        {
          "name": "id_artist",
          "type": "uint256"
        },
        {
          "name": "concertId",
          "type": "uint256"
        },
        {
          "name": "amountPaid",
          "type": "uint256"
        },
        {
          "name": "isAvailable",
          "type": "bool"
        },
        {
          "name": "isAvailableForSale",
          "type": "bool"
        }
      ],
      "payable": false,
      "stateMutability": "view",
      "type": "function"
    },
    {
      "constant": true,
      "inputs": [],
      "name": "venueOwner",
      "outputs": [
        {
          "name": "",
          "type": "address"
        }
      ],
      "payable": false,
      "stateMutability": "view",
      "type": "function"
    },
    {
      "constant": true,
      "inputs": [
        {
          "name": "",
          "type": "uint256"
        }
      ],
      "name": "artistsRegister",
      "outputs": [
        {
          "name": "owner",
          "type": "address"
        },
        {
          "name": "id",
          "type": "uint256"
        },
        {
          "name": "name",
          "type": "bytes32"
        },
        {
          "name": "artistCategory",
          "type": "uint256"
        },
        {
          "name": "totalTicketSold",
          "type": "uint256"
        }
      ],
      "payable": false,
      "stateMutability": "view",
      "type": "function"
    },
    {
      "constant": true,
      "inputs": [
        {
          "name": "",
          "type": "uint256"
        }
      ],
      "name": "venuesRegister",
      "outputs": [
        {
          "name": "id",
          "type": "uint256"
        },
        {
          "name": "owner",
          "type": "address"
        },
        {
          "name": "name",
          "type": "bytes32"
        },
        {
          "name": "capacity",
          "type": "uint256"
        },
        {
          "name": "standardComission",
          "type": "uint256"
        }
      ],
      "payable": false,
      "stateMutability": "view",
      "type": "function"
    },
    {
      "constant": true,
      "inputs": [
        {
          "name": "",
          "type": "address"
        }
      ],
      "name": "pendingTransactions",
      "outputs": [
        {
          "name": "",
          "type": "uint256"
        }
      ],
      "payable": false,
      "stateMutability": "view",
      "type": "function"
    },
    {
      "constant": true,
      "inputs": [],
      "name": "name_tick",
      "outputs": [
        {
          "name": "",
          "type": "bytes32"
        }
      ],
      "payable": false,
      "stateMutability": "view",
      "type": "function"
    },
    {
      "constant": true,
      "inputs": [
        {
          "name": "",
          "type": "uint256"
        }
      ],
      "name": "concertsRegister",
      "outputs": [
        {
          "name": "artistId",
          "type": "uint256"
        },
        {
          "name": "concertDate",
          "type": "uint256"
        },
        {
          "name": "venueId",
          "type": "uint256"
        },
        {
          "name": "prixticket",
          "type": "uint256"
        },
        {
          "name": "validatedByArtist",
          "type": "bool"
        },
        {
          "name": "validatedByVenue",
          "type": "bool"
        },
        {
          "name": "totalSoldTicket",
          "type": "uint256"
        },
        {
          "name": "totalMoneyCollected",
          "type": "uint256"
        }
      ],
      "payable": false,
      "stateMutability": "view",
      "type": "function"
    },
    {
      "anonymous": false,
      "inputs": [
        {
          "indexed": false,
          "name": "ticketKey",
          "type": "bytes32"
        }
      ],
      "name": "TicketKey",
      "type": "event"
    },
    {
      "anonymous": false,
      "inputs": [
        {
          "indexed": false,
          "name": "canPurchase",
          "type": "bool"
        }
      ],
      "name": "CanPurchase",
      "type": "event"
    },
    {
      "anonymous": false,
      "inputs": [
        {
          "indexed": false,
          "name": "paid",
          "type": "bool"
        }
      ],
      "name": "PaidFor",
      "type": "event"
    },
    {
      "constant": false,
      "inputs": [
        {
          "name": "nam",
          "type": "bytes32"
        },
        {
          "name": "genr",
          "type": "uint256"
        }
      ],
      "name": "createArtist",
      "outputs": [],
      "payable": false,
      "stateMutability": "nonpayable",
      "type": "function"
    },
    {
      "constant": false,
      "inputs": [
        {
          "name": "ido",
          "type": "uint256"
        },
        {
          "name": "nam",
          "type": "bytes32"
        },
        {
          "name": "newgenr",
          "type": "uint256"
        },
        {
          "name": "a",
          "type": "address"
        }
      ],
      "name": "modifyArtist",
      "outputs": [],
      "payable": false,
      "stateMutability": "nonpayable",
      "type": "function"
    },
    {
      "constant": false,
      "inputs": [
        {
          "name": "nam",
          "type": "bytes32"
        },
        {
          "name": "cap",
          "type": "uint256"
        },
        {
          "name": "comi",
          "type": "uint256"
        }
      ],
      "name": "createVenue",
      "outputs": [],
      "payable": false,
      "stateMutability": "nonpayable",
      "type": "function"
    },
    {
      "constant": false,
      "inputs": [
        {
          "name": "ido",
          "type": "uint256"
        },
        {
          "name": "nam",
          "type": "bytes32"
        },
        {
          "name": "cap",
          "type": "uint256"
        },
        {
          "name": "comi",
          "type": "uint256"
        },
        {
          "name": "a",
          "type": "address"
        }
      ],
      "name": "modifyVenue",
      "outputs": [],
      "payable": false,
      "stateMutability": "nonpayable",
      "type": "function"
    },
    {
      "constant": false,
      "inputs": [
        {
          "name": "idart",
          "type": "uint256"
        },
        {
          "name": "idven",
          "type": "uint256"
        },
        {
          "name": "dat",
          "type": "uint256"
        },
        {
          "name": "_concertid",
          "type": "uint256"
        },
        {
          "name": "a",
          "type": "address"
        }
      ],
      "name": "createTicket",
      "outputs": [],
      "payable": false,
      "stateMutability": "nonpayable",
      "type": "function"
    },
    {
      "constant": false,
      "inputs": [
        {
          "name": "idar",
          "type": "uint256"
        },
        {
          "name": "idve",
          "type": "uint256"
        },
        {
          "name": "dat",
          "type": "uint256"
        },
        {
          "name": "tickpri",
          "type": "uint256"
        }
      ],
      "name": "createConcert",
      "outputs": [],
      "payable": false,
      "stateMutability": "nonpayable",
      "type": "function"
    },
    {
      "constant": false,
      "inputs": [
        {
          "name": "_concertId",
          "type": "uint256"
        }
      ],
      "name": "validateConcert",
      "outputs": [],
      "payable": false,
      "stateMutability": "nonpayable",
      "type": "function"
    },
    {
      "constant": false,
      "inputs": [
        {
          "name": "concertid",
          "type": "uint256"
        },
        {
          "name": "_ticketOwner",
          "type": "address"
        }
      ],
      "name": "emitTicket",
      "outputs": [],
      "payable": false,
      "stateMutability": "nonpayable",
      "type": "function"
    },
    {
      "constant": false,
      "inputs": [
        {
          "name": "_concertId",
          "type": "uint256"
        }
      ],
      "name": "buyTicket",
      "outputs": [],
      "payable": true,
      "stateMutability": "payable",
      "type": "function"
    },
    {
      "constant": false,
      "inputs": [
        {
          "name": "_ticketId",
          "type": "uint256"
        }
      ],
      "name": "useTicket",
      "outputs": [],
      "payable": false,
      "stateMutability": "nonpayable",
      "type": "function"
    },
    {
      "constant": false,
      "inputs": [
        {
          "name": "_ticketId",
          "type": "uint256"
        },
        {
          "name": "_newOwner",
          "type": "address"
        }
      ],
      "name": "transferTicket",
      "outputs": [],
      "payable": false,
      "stateMutability": "nonpayable",
      "type": "function"
    },
    {
      "constant": false,
      "inputs": [
        {
          "name": "_concertId",
          "type": "uint256"
        },
        {
          "name": "_cashOutAddress",
          "type": "address"
        }
      ],
      "name": "cashOutConcert",
      "outputs": [],
      "payable": false,
      "stateMutability": "nonpayable",
      "type": "function"
    }
  ],
  "bytecode": "0x60806040526001600755600160085560016009556001600a5534801561002457600080fd5b50611706806100346000396000f3fe60806040526004361061011d576000357c0100000000000000000000000000000000000000000000000000000000900463ffffffff1680631209b1f6146101225780631a8599621461014d5780631b4d15ae146101c657806326606448146101f5578063486ff9ae1461023057806359cb327a1461028b5780635dfe9291146102da578063679ebf1a1461039557806367dd74ca146103f057806371ecd9f31461041e57806388d658461461047557806390b3b014146104ee57806392fc3b081461055d57806397af293014610598578063a88ae8151461062f578063c127fd39146106c6578063d6ecc2b11461072b578063e03536f314610786578063e62e4f8d146107df578063e88c312714610824578063f02eafd11461084f575b600080fd5b34801561012e57600080fd5b506101376108d7565b6040518082815260200191505060405180910390f35b34801561015957600080fd5b506101c4600480360360a081101561017057600080fd5b8101908080359060200190929190803590602001909291908035906020019092919080359060200190929190803573ffffffffffffffffffffffffffffffffffffffff1690602001909291905050506108dd565b005b3480156101d257600080fd5b506101db610a6c565b604051808215151515815260200191505060405180910390f35b34801561020157600080fd5b5061022e6004803603602081101561021857600080fd5b8101908080359060200190929190505050610a7f565b005b34801561023c57600080fd5b506102896004803603604081101561025357600080fd5b8101908080359060200190929190803573ffffffffffffffffffffffffffffffffffffffff169060200190929190505050610b74565b005b34801561029757600080fd5b506102d8600480360360608110156102ae57600080fd5b81019080803590602001909291908035906020019092919080359060200190929190505050610c62565b005b3480156102e657600080fd5b50610313600480360360208110156102fd57600080fd5b8101908080359060200190929190505050610d46565b604051808a81526020018973ffffffffffffffffffffffffffffffffffffffff1673ffffffffffffffffffffffffffffffffffffffff1681526020018881526020018781526020018681526020018581526020018481526020018315151515815260200182151515158152602001995050505050505050505060405180910390f35b3480156103a157600080fd5b506103ee600480360360408110156103b857600080fd5b8101908080359060200190929190803573ffffffffffffffffffffffffffffffffffffffff169060200190929190505050610dce565b005b61041c6004803603602081101561040657600080fd5b8101908080359060200190929190505050610e95565b005b34801561042a57600080fd5b50610433610f47565b604051808273ffffffffffffffffffffffffffffffffffffffff1673ffffffffffffffffffffffffffffffffffffffff16815260200191505060405180910390f35b34801561048157600080fd5b506104ec600480360360a081101561049857600080fd5b8101908080359060200190929190803590602001909291908035906020019092919080359060200190929190803573ffffffffffffffffffffffffffffffffffffffff169060200190929190505050610f6d565b005b3480156104fa57600080fd5b5061055b6004803603608081101561051157600080fd5b81019080803590602001909291908035906020019092919080359060200190929190803573ffffffffffffffffffffffffffffffffffffffff16906020019092919050505061108a565b005b34801561056957600080fd5b506105966004803603602081101561058057600080fd5b81019080803590602001909291905050506111a7565b005b3480156105a457600080fd5b506105d1600480360360208110156105bb57600080fd5b810190808035906020019092919050505061132f565b604051808673ffffffffffffffffffffffffffffffffffffffff1673ffffffffffffffffffffffffffffffffffffffff1681526020018581526020018481526020018381526020018281526020019550505050505060405180910390f35b34801561063b57600080fd5b506106686004803603602081101561065257600080fd5b8101908080359060200190929190505050611385565b604051808681526020018573ffffffffffffffffffffffffffffffffffffffff1673ffffffffffffffffffffffffffffffffffffffff1681526020018481526020018381526020018281526020019550505050505060405180910390f35b3480156106d257600080fd5b50610715600480360360208110156106e957600080fd5b81019080803573ffffffffffffffffffffffffffffffffffffffff1690602001909291905050506113db565b6040518082815260200191505060405180910390f35b34801561073757600080fd5b506107846004803603604081101561074e57600080fd5b8101908080359060200190929190803573ffffffffffffffffffffffffffffffffffffffff1690602001909291905050506113f3565b005b34801561079257600080fd5b506107dd600480360360808110156107a957600080fd5b810190808035906020019092919080359060200190929190803590602001909291908035906020019092919050505061141b565b005b3480156107eb57600080fd5b506108226004803603604081101561080257600080fd5b81019080803590602001909291908035906020019092919050505061158e565b005b34801561083057600080fd5b50610839611672565b6040518082815260200191505060405180910390f35b34801561085b57600080fd5b506108886004803603602081101561087257600080fd5b8101908080359060200190929190505050611678565b6040518089815260200188815260200187815260200186815260200185151515158152602001841515151581526020018381526020018281526020019850505050505050505060405180910390f35b60035481565b81600080600954815260200190815260200160002060050181905550600c6000838152602001908152602001600020600301546000806009548152602001908152602001600020600601819055506001600080600954815260200190815260200160002060070160006101000a81548160ff0219169083151502179055506000806000600954815260200190815260200160002060070160016101000a81548160ff02191690831515021790555080600080600954815260200190815260200160002060010160006101000a81548173ffffffffffffffffffffffffffffffffffffffff021916908373ffffffffffffffffffffffffffffffffffffffff1602179055508460008060095481526020019081526020016000206004018190555083600080600954815260200190815260200160002060030181905550826000806009548152602001908152602001600020600201819055506009546000806009548152602001908152602001600020600001819055506009600081548092919060010191905055505050505050565b600260009054906101000a900460ff1681565b60008082815260200190815260200160002060010160009054906101000a900473ffffffffffffffffffffffffffffffffffffffff1673ffffffffffffffffffffffffffffffffffffffff163373ffffffffffffffffffffffffffffffffffffffff16141515610aee57600080fd5b600080600083815260200190815260200160002060070160006101000a81548160ff021916908315150217905550600080600083815260200190815260200160002060010160006101000a81548173ffffffffffffffffffffffffffffffffffffffff021916908373ffffffffffffffffffffffffffffffffffffffff16021790555050565b60066000600160075403815260200190815260200160002060000160009054906101000a900473ffffffffffffffffffffffffffffffffffffffff1673ffffffffffffffffffffffffffffffffffffffff163373ffffffffffffffffffffffffffffffffffffffff16141515610be957600080fd5b610c38600c600084815260200190815260200160002060000154600c600085815260200190815260200160002060020154600c60008681526020019081526020016000206001015485856108dd565b600c6000838152602001908152602001600020600501600081548092919060010191905055505050565b600854600b600060085481526020019081526020016000206000018190555033600b6000600854815260200190815260200160002060010160006101000a81548173ffffffffffffffffffffffffffffffffffffffff021916908373ffffffffffffffffffffffffffffffffffffffff16021790555082600b600060085481526020019081526020016000206002018190555081600b600060085481526020019081526020016000206003018190555080600b6000600854815260200190815260200160002060040181905550600860008154809291906001019190505550505050565b60006020528060005260406000206000915090508060000154908060010160009054906101000a900473ffffffffffffffffffffffffffffffffffffffff16908060020154908060030154908060040154908060050154908060060154908060070160009054906101000a900460ff16908060070160019054906101000a900460ff16905089565b60008083815260200190815260200160002060010160009054906101000a900473ffffffffffffffffffffffffffffffffffffffff1673ffffffffffffffffffffffffffffffffffffffff163373ffffffffffffffffffffffffffffffffffffffff16141515610e3d57600080fd5b8060008084815260200190815260200160002060010160006101000a81548173ffffffffffffffffffffffffffffffffffffffff021916908373ffffffffffffffffffffffffffffffffffffffff1602179055505050565b610ee4600c600083815260200190815260200160002060000154600c600084815260200190815260200160002060020154600c60008581526020019081526020016000206001015484336108dd565b600c600082815260200190815260200160002060050160008154809291906001019190505550600c600082815260200190815260200160002060030154600c60008381526020019081526020016000206006016000828254019250508190555050565b600460009054906101000a900473ffffffffffffffffffffffffffffffffffffffff1681565b3373ffffffffffffffffffffffffffffffffffffffff16600b600087815260200190815260200160002060010160009054906101000a900473ffffffffffffffffffffffffffffffffffffffff1673ffffffffffffffffffffffffffffffffffffffff16141515610fdd57600080fd5b80600b600087815260200190815260200160002060010160006101000a81548173ffffffffffffffffffffffffffffffffffffffff021916908373ffffffffffffffffffffffffffffffffffffffff16021790555083600b60008781526020019081526020016000206002018190555082600b60008781526020019081526020016000206003018190555081600b6000878152602001908152602001600020600401819055505050505050565b3373ffffffffffffffffffffffffffffffffffffffff166006600086815260200190815260200160002060000160009054906101000a900473ffffffffffffffffffffffffffffffffffffffff1673ffffffffffffffffffffffffffffffffffffffff161415156110fa57600080fd5b806006600086815260200190815260200160002060000160006101000a81548173ffffffffffffffffffffffffffffffffffffffff021916908373ffffffffffffffffffffffffffffffffffffffff1602179055508260066000868152602001908152602001600020600201819055508160066000868152602001908152602001600020600301819055506000600660008681526020019081526020016000206004018190555050505050565b42600c600083815260200190815260200160002060010154101515156111cc57600080fd5b3373ffffffffffffffffffffffffffffffffffffffff16600b6000600c600085815260200190815260200160002060020154815260200190815260200160002060010160009054906101000a900473ffffffffffffffffffffffffffffffffffffffff1673ffffffffffffffffffffffffffffffffffffffff16141561127c576001600c600083815260200190815260200160002060040160016101000a81548160ff0219169083151502179055505b3373ffffffffffffffffffffffffffffffffffffffff1660066000600c600085815260200190815260200160002060000154815260200190815260200160002060000160009054906101000a900473ffffffffffffffffffffffffffffffffffffffff1673ffffffffffffffffffffffffffffffffffffffff16141561132c576001600c600083815260200190815260200160002060040160006101000a81548160ff0219169083151502179055505b50565b60066020528060005260406000206000915090508060000160009054906101000a900473ffffffffffffffffffffffffffffffffffffffff16908060010154908060020154908060030154908060040154905085565b600b6020528060005260406000206000915090508060000154908060010160009054906101000a900473ffffffffffffffffffffffffffffffffffffffff16908060020154908060030154908060040154905085565b60016020528060005260406000206000915090505481565b42600c60008481526020019081526020016000206001015410151561141757600080fd5b5050565b83600c6000600a5481526020019081526020016000206000018190555081600c6000600a5481526020019081526020016000206001018190555082600c6000600a5481526020019081526020016000206002018190555080600c6000600a548152602001908152602001600020600301819055506000600c6000600a54815260200190815260200160002060040160016101000a81548160ff0219169083151502179055506000600c6000600a548152602001908152602001600020600501819055506000600c6000600a548152602001908152602001600020505060006002600a5481151561150757fe5b061415611544576000600c6000600a54815260200190815260200160002060040160006101000a81548160ff021916908315150217905550611576565b6001600c6000600a54815260200190815260200160002060040160006101000a81548160ff0219169083151502179055505b600a6000815480929190600101919050555050505050565b3360066000600754815260200190815260200160002060000160006101000a81548173ffffffffffffffffffffffffffffffffffffffff021916908373ffffffffffffffffffffffffffffffffffffffff16021790555081600660006007548152602001908152602001600020600201819055508060066000600754815260200190815260200160002060030181905550600754600660006007548152602001908152602001600020600101819055506000600660006007548152602001908152602001600020600401819055506007600081548092919060010191905055505050565b60055481565b600c6020528060005260406000206000915090508060000154908060010154908060020154908060030154908060040160009054906101000a900460ff16908060040160019054906101000a900460ff1690806005015490806006015490508856fea165627a7a7230582052b3840936edbf6e907a2c8332f3f2879993c741982381057e2ac56fc346b5830029",
  "source": "pragma solidity >=0.4.22<0.6.0;\r\n\r\ncontract ticketingSystem{\r\n\r\n\r\n\r\n  struct Ticket {\r\n   \r\n    uint idticket;\r\n    address owner;\r\n    uint date;\r\n    uint id_venue;\r\n    uint id_artist;\r\n    uint concertId;\r\n    uint amountPaid;\r\n    bool isAvailable;\r\n    bool isAvailableForSale;\r\n  }\r\n\r\n  mapping(uint256 => Ticket) public ticketsRegister;\r\n  mapping(address => uint) public pendingTransactions;\r\n  bool public releaseEther;\r\n  uint public ticketPrice;\r\n  address public venueOwner;\r\n  bytes32 public name_tick;\r\n  event TicketKey(bytes32 ticketKey);\r\n  event CanPurchase(bool canPurchase);\r\n  event PaidFor(bool paid);\r\n\r\nmapping (uint256 => Artist) public artistsRegister;\r\n\r\nstruct Artist\r\n{\r\n  address owner;\r\n  uint id;\r\n  bytes32 name;\r\n  uint artistCategory;\r\n  uint totalTicketSold;\r\n}\r\n\r\nuint artistCounter = 1 ;//compteur\r\nuint venueCounter = 1 ;\r\nuint ticketCounter = 1 ;\r\nuint concertcounter = 1 ;\r\n\r\n\r\n\r\nfunction createArtist (bytes32 nam, uint genr) public\r\n{\r\n  artistsRegister[artistCounter].owner=msg.sender;\r\n  artistsRegister[artistCounter].name=nam;\r\n  artistsRegister[artistCounter].artistCategory=genr;\r\n  artistsRegister[artistCounter].id=artistCounter;\r\n  artistsRegister[artistCounter].totalTicketSold=0;\r\n  artistCounter++;\r\n}\r\n\r\nfunction modifyArtist(uint ido,bytes32 nam,uint newgenr,address a )public\r\n{\r\n  require(artistsRegister[ido].owner==msg.sender);\r\n  artistsRegister[ido].owner=a;\r\n  artistsRegister[ido].name=nam;\r\n  artistsRegister[ido].artistCategory=newgenr;\r\n  artistsRegister[ido].totalTicketSold=0;\r\n  \r\n\r\n}\r\nmapping (uint256 => Venue) public venuesRegister;\r\n\r\n\r\nstruct Venue\r\n{\r\n  uint id;\r\n  address owner;\r\n  bytes32 name;\r\n  uint capacity;\r\n  uint standardComission;\r\n}\r\n\r\nfunction createVenue (bytes32 nam, uint cap, uint comi) public\r\n{\r\n  venuesRegister[venueCounter].id=venueCounter;\r\n  venuesRegister[venueCounter].owner=msg.sender;\r\n  venuesRegister[venueCounter].name=nam;\r\n  venuesRegister[venueCounter].capacity=cap;\r\n  venuesRegister[venueCounter].standardComission=comi;\r\n  venueCounter++;\r\n}\r\n\r\n\r\nfunction modifyVenue(uint ido,bytes32 nam,uint cap,uint comi,address a )public\r\n{\r\n  require(venuesRegister[ido].owner==msg.sender);\r\n  venuesRegister[ido].owner=a;\r\n  venuesRegister[ido].name=nam;\r\n  venuesRegister[ido].capacity=cap;\r\n  venuesRegister[ido].standardComission=comi;\r\n  \r\n}\r\n\r\nfunction createTicket(uint idart,uint idven,uint dat,uint _concertid,address a )public\r\n{\r\n  ticketsRegister[ticketCounter].concertId=_concertid;\r\n  ticketsRegister[ticketCounter].amountPaid=concertsRegister[_concertid].prixticket;\r\n  ticketsRegister[ticketCounter].isAvailable=true;\r\n  ticketsRegister[ticketCounter].isAvailableForSale=false;\r\n  ticketsRegister[ticketCounter].owner=a;\r\n  ticketsRegister[ticketCounter].id_artist=idart;\r\n  ticketsRegister[ticketCounter].id_venue=idven;\r\n  ticketsRegister[ticketCounter].date=dat;\r\n  ticketsRegister[ticketCounter].idticket=ticketCounter;\r\n  ticketCounter++;\r\n\r\n}\r\n\r\nmapping (uint256 => Concert) public concertsRegister;\r\n\r\nstruct Concert\r\n{\r\n  uint artistId;\r\n  uint concertDate;\r\n  uint venueId;\r\n  uint prixticket;\r\n  bool validatedByArtist;\r\n  bool validatedByVenue;\r\n  uint totalSoldTicket;\r\n  uint totalMoneyCollected;\r\n}\r\n\r\nfunction createConcert (uint idar, uint idve, uint dat,uint tickpri) public\r\n{\r\n\r\n  concertsRegister[concertcounter].artistId=idar;\r\n  concertsRegister[concertcounter].concertDate=dat;\r\n  concertsRegister[concertcounter].venueId=idve;\r\n  concertsRegister[concertcounter].prixticket=tickpri;\r\n  concertsRegister[concertcounter].validatedByVenue=false;\r\n  concertsRegister[concertcounter].totalSoldTicket=0;\r\n  concertsRegister[concertcounter].totalMoneyCollected==0;\r\n\r\n  if(concertcounter%2==0)\r\n  {concertsRegister[concertcounter].validatedByArtist=false;}\r\n else\r\n { concertsRegister[concertcounter].validatedByArtist=true;}\r\n  concertcounter++;\r\n}\r\n\r\n\r\nfunction validateConcert(uint _concertId) public {\r\n\r\nrequire(concertsRegister[_concertId].concertDate >= now);\r\n\r\nif (venuesRegister[concertsRegister[_concertId].venueId].owner == msg.sender)\r\n{\r\nconcertsRegister[_concertId].validatedByVenue = true;\r\n}\r\nif (artistsRegister[concertsRegister[_concertId].artistId].owner == msg.sender)\r\n{\r\nconcertsRegister[_concertId].validatedByArtist = true;\r\n}\r\n}\r\n\r\n\r\nfunction emitTicket(uint concertid,address payable _ticketOwner) public\r\n{\r\n\r\n  require(msg.sender==artistsRegister[artistCounter-1].owner);\r\n\r\n  createTicket(concertsRegister[concertid].artistId,concertsRegister[concertid].venueId,\r\n    concertsRegister[concertid].concertDate,concertid,_ticketOwner);\r\n\r\n  concertsRegister[concertid].totalSoldTicket++;\r\n\r\n // emit deploy(artistsRegister[artistCounter],tickets[ticketCounter]);\r\n}\r\n\r\n\r\n\r\nfunction buyTicket(uint _concertId) public payable\r\n{\r\n\r\n  createTicket(concertsRegister[_concertId].artistId,concertsRegister[_concertId].venueId ,\r\n   concertsRegister[_concertId].concertDate, _concertId,msg.sender);\r\n  \r\n  concertsRegister[_concertId].totalSoldTicket++;\r\n  concertsRegister[_concertId].totalMoneyCollected+=concertsRegister[_concertId].prixticket;\r\n\r\n\r\n}\r\n\r\nfunction useTicket(uint _ticketId) public\r\n{\r\n  \r\n  require(msg.sender==ticketsRegister[_ticketId].owner);\r\n  \r\n    ticketsRegister[_ticketId].isAvailable=false;\r\n    ticketsRegister[_ticketId].owner=address(0x0000);\r\n}  \r\n\r\nfunction transferTicket(uint _ticketId, address payable _newOwner) public\r\n{\r\n  require(msg.sender==ticketsRegister[_ticketId].owner);\r\n  ticketsRegister[_ticketId].owner=_newOwner;\r\n\r\n}\r\n\r\nfunction cashOutConcert(uint _concertId, address payable _cashOutAddress) public\r\n{\r\n  require(concertsRegister[_concertId].concertDate<uint256(now) );\r\n\r\n\r\n}\r\n\r\n\r\n\r\n\r\n  }\r\n\r\n\r\n",
  "sourcePath": "C:/Users/thomas/Documents/td7/contracts/ticketingSystem.sol",
  "compiler": {
    "name": "solc",
    "version": "0.5.0+commit.1d4f565a.Emscripten.clang"
  },
  "schemaVersion": "3.0.5",
  "updatedAt": "2019-03-24T23:15:39.598Z",
  "devdoc": {
    "methods": {}
  },
  "userdoc": {
    "methods": {}
  }
}